{
  "_format": "hh-sol-artifact-1",
  "contractName": "EcoFund",
  "sourceName": "contracts/EcoFund.sol",
  "abi": [
    {
      "inputs": [
        {
          "internalType": "uint256",
          "name": "_id",
          "type": "uint256"
        },
        {
          "internalType": "address",
          "name": "_owner",
          "type": "address"
        },
        {
          "internalType": "enum EcoFundModel.FundraiserType",
          "name": "_type",
          "type": "uint8"
        },
        {
          "internalType": "enum EcoFundModel.FundraiserCategory",
          "name": "_category",
          "type": "uint8"
        },
        {
          "internalType": "string",
          "name": "_name",
          "type": "string"
        },
        {
          "internalType": "string",
          "name": "_initialDescription",
          "type": "string"
        },
        {
          "internalType": "uint256",
          "name": "_endDate",
          "type": "uint256"
        },
        {
          "internalType": "uint256",
          "name": "_goalAmount",
          "type": "uint256"
        }
      ],
      "stateMutability": "nonpayable",
      "type": "constructor"
    },
    {
      "inputs": [],
      "name": "EcoFund__after_endDate",
      "type": "error"
    },
    {
      "inputs": [],
      "name": "EcoFund__not_implemented",
      "type": "error"
    },
    {
      "inputs": [
        {
          "internalType": "string",
          "name": "_picture",
          "type": "string"
        },
        {
          "internalType": "bool",
          "name": "_makeDefault",
          "type": "bool"
        }
      ],
      "name": "addImage",
      "outputs": [],
      "stateMutability": "nonpayable",
      "type": "function"
    },
    {
      "inputs": [],
      "name": "closeAndRevertDonations",
      "outputs": [],
      "stateMutability": "nonpayable",
      "type": "function"
    },
    {
      "inputs": [],
      "name": "getAllDetails",
      "outputs": [
        {
          "internalType": "uint256",
          "name": "id",
          "type": "uint256"
        },
        {
          "internalType": "address",
          "name": "owner",
          "type": "address"
        },
        {
          "internalType": "enum EcoFundModel.FundraiserType",
          "name": "fType",
          "type": "uint8"
        },
        {
          "internalType": "enum EcoFundModel.FundraiserCategory",
          "name": "category",
          "type": "uint8"
        },
        {
          "internalType": "uint256",
          "name": "endDate",
          "type": "uint256"
        },
        {
          "internalType": "uint256",
          "name": "goalAmount",
          "type": "uint256"
        },
        {
          "internalType": "string[]",
          "name": "descriptions",
          "type": "string[]"
        },
        {
          "internalType": "string[]",
          "name": "images",
          "type": "string[]"
        },
        {
          "internalType": "uint256",
          "name": "defaultImage",
          "type": "uint256"
        },
        {
          "internalType": "string",
          "name": "name",
          "type": "string"
        },
        {
          "internalType": "enum EcoFundModel.FundraiserStatus",
          "name": "status",
          "type": "uint8"
        },
        {
          "internalType": "uint256",
          "name": "balances",
          "type": "uint256"
        }
      ],
      "stateMutability": "view",
      "type": "function"
    },
    {
      "inputs": [],
      "name": "getDescriptionsCount",
      "outputs": [
        {
          "internalType": "uint256",
          "name": "",
          "type": "uint256"
        }
      ],
      "stateMutability": "view",
      "type": "function"
    },
    {
      "inputs": [],
      "name": "getImagesCount",
      "outputs": [
        {
          "internalType": "uint256",
          "name": "",
          "type": "uint256"
        }
      ],
      "stateMutability": "view",
      "type": "function"
    },
    {
      "inputs": [],
      "name": "i_category",
      "outputs": [
        {
          "internalType": "enum EcoFundModel.FundraiserCategory",
          "name": "",
          "type": "uint8"
        }
      ],
      "stateMutability": "view",
      "type": "function"
    },
    {
      "inputs": [],
      "name": "i_endDate",
      "outputs": [
        {
          "internalType": "uint256",
          "name": "",
          "type": "uint256"
        }
      ],
      "stateMutability": "view",
      "type": "function"
    },
    {
      "inputs": [],
      "name": "i_goalAmount",
      "outputs": [
        {
          "internalType": "uint256",
          "name": "",
          "type": "uint256"
        }
      ],
      "stateMutability": "view",
      "type": "function"
    },
    {
      "inputs": [],
      "name": "i_id",
      "outputs": [
        {
          "internalType": "uint256",
          "name": "",
          "type": "uint256"
        }
      ],
      "stateMutability": "view",
      "type": "function"
    },
    {
      "inputs": [],
      "name": "i_owner",
      "outputs": [
        {
          "internalType": "address",
          "name": "",
          "type": "address"
        }
      ],
      "stateMutability": "view",
      "type": "function"
    },
    {
      "inputs": [],
      "name": "i_type",
      "outputs": [
        {
          "internalType": "enum EcoFundModel.FundraiserType",
          "name": "",
          "type": "uint8"
        }
      ],
      "stateMutability": "view",
      "type": "function"
    },
    {
      "inputs": [
        {
          "internalType": "address",
          "name": "_donorAddress",
          "type": "address"
        },
        {
          "internalType": "uint256",
          "name": "_amount",
          "type": "uint256"
        },
        {
          "internalType": "address",
          "name": "_tokenAddress",
          "type": "address"
        }
      ],
      "name": "makeDonation",
      "outputs": [
        {
          "internalType": "bool",
          "name": "",
          "type": "bool"
        }
      ],
      "stateMutability": "payable",
      "type": "function"
    },
    {
      "inputs": [
        {
          "internalType": "address",
          "name": "",
          "type": "address"
        }
      ],
      "name": "s_balances",
      "outputs": [
        {
          "internalType": "uint256",
          "name": "",
          "type": "uint256"
        }
      ],
      "stateMutability": "view",
      "type": "function"
    },
    {
      "inputs": [],
      "name": "s_defaultImage",
      "outputs": [
        {
          "internalType": "uint256",
          "name": "",
          "type": "uint256"
        }
      ],
      "stateMutability": "view",
      "type": "function"
    },
    {
      "inputs": [
        {
          "internalType": "uint256",
          "name": "",
          "type": "uint256"
        }
      ],
      "name": "s_descriptions",
      "outputs": [
        {
          "internalType": "string",
          "name": "",
          "type": "string"
        }
      ],
      "stateMutability": "view",
      "type": "function"
    },
    {
      "inputs": [
        {
          "internalType": "address",
          "name": "",
          "type": "address"
        },
        {
          "internalType": "address",
          "name": "",
          "type": "address"
        }
      ],
      "name": "s_donors",
      "outputs": [
        {
          "internalType": "uint256",
          "name": "",
          "type": "uint256"
        }
      ],
      "stateMutability": "view",
      "type": "function"
    },
    {
      "inputs": [
        {
          "internalType": "uint256",
          "name": "",
          "type": "uint256"
        }
      ],
      "name": "s_images",
      "outputs": [
        {
          "internalType": "string",
          "name": "",
          "type": "string"
        }
      ],
      "stateMutability": "view",
      "type": "function"
    },
    {
      "inputs": [],
      "name": "s_name",
      "outputs": [
        {
          "internalType": "string",
          "name": "",
          "type": "string"
        }
      ],
      "stateMutability": "view",
      "type": "function"
    },
    {
      "inputs": [],
      "name": "s_status",
      "outputs": [
        {
          "internalType": "enum EcoFundModel.FundraiserStatus",
          "name": "",
          "type": "uint8"
        }
      ],
      "stateMutability": "view",
      "type": "function"
    },
    {
      "inputs": [
        {
          "internalType": "uint256",
          "name": "_pictureIdx",
          "type": "uint256"
        }
      ],
      "name": "setDefaultPicture",
      "outputs": [],
      "stateMutability": "nonpayable",
      "type": "function"
    },
    {
      "inputs": [
        {
          "internalType": "string",
          "name": "_description",
          "type": "string"
        }
      ],
      "name": "setDefaultPicture",
      "outputs": [],
      "stateMutability": "nonpayable",
      "type": "function"
    },
    {
      "inputs": [
        {
          "internalType": "uint256",
          "name": "_amount",
          "type": "uint256"
        },
        {
          "internalType": "address",
          "name": "_tokenAddress",
          "type": "address"
        }
      ],
      "name": "withdrawFunds",
      "outputs": [],
      "stateMutability": "nonpayable",
      "type": "function"
    }
  ],
  "bytecode": "0x6101606040523480156200001257600080fd5b5060405162001c9938038062001c998339810160408190526200003591620002b5565b60808890526001600160601b0319606088901b1660a052856002811115620000615762000061620003bf565b60c0816002811115620000785762000078620003bf565b60f81b905250846005811115620000935762000093620003bf565b60e0816005811115620000aa57620000aa620003bf565b60f81b9052508351620000c590600390602087019062000133565b5060008054600181018255908052835162000108917f290decd9548b62a8d60345a988386fc84ba6bc95484008f6362f93160ef3e5630190602086019062000133565b503360601b61014052610100919091526101205250506004805460ff1916905550620003eb92505050565b828054620001419062000382565b90600052602060002090601f016020900481019282620001655760008555620001b0565b82601f106200018057805160ff1916838001178555620001b0565b82800160010185558215620001b0579182015b82811115620001b057825182559160200191906001019062000193565b50620001be929150620001c2565b5090565b5b80821115620001be5760008155600101620001c3565b805160068110620001e957600080fd5b919050565b805160038110620001e957600080fd5b600082601f8301126200021057600080fd5b81516001600160401b03808211156200022d576200022d620003d5565b604051601f8301601f19908116603f01168101908282118183101715620002585762000258620003d5565b816040528381526020925086838588010111156200027557600080fd5b600091505b838210156200029957858201830151818301840152908201906200027a565b83821115620002ab5760008385830101525b9695505050505050565b600080600080600080600080610100898b031215620002d357600080fd5b885160208a01519098506001600160a01b0381168114620002f357600080fd5b96506200030360408a01620001ee565b95506200031360608a01620001d9565b60808a01519095506001600160401b03808211156200033157600080fd5b6200033f8c838d01620001fe565b955060a08b01519150808211156200035657600080fd5b50620003658b828c01620001fe565b60c08b015160e0909b0151999c989b509699959894979350505050565b600181811c908216806200039757607f821691505b60208210811415620003b957634e487b7160e01b600052602260045260246000fd5b50919050565b634e487b7160e01b600052602160045260246000fd5b634e487b7160e01b600052604160045260246000fd5b60805160a05160601c60c05160f81c60e05160f81c61010051610120516101405160601c6117de620004bb6000396000610fbf01526000818161031201528181610c1201528181610f9401526110830152600081816101c201528181610840015281816108690152610bf101526000818161048c0152610bd00152600081816102380152610baf015260008181610440015281816105970152818161099201528181610a2f01528181610adb01528181610b8e0152610ed30152600081816102de0152610b6d01526117de6000f3fe6080604052600436106101355760003560e01c80638742993d116100ab578063c699db511161006f578063c699db51146103cb578063ca2b7220146103eb578063ccc5d7d414610401578063dba6335f1461042e578063f950e69c1461047a578063ff2e100c146104bb57600080fd5b80638742993d146103345780638e82814314610349578063ab32eb6914610369578063bba1964f14610396578063bf9f4aab146103ab57600080fd5b8063554abf52116100fd578063554abf52146102265780636680ba7d14610267578063744bfe611461028757806374e781b3146102a9578063779fa30f146102cc578063853a68661461030057600080fd5b80631ca5872c1461013a5780632a5785421461016a57806336926866146101b057806343394df4146101e457806352ddf86214610211575b600080fd5b34801561014657600080fd5b506004546101549060ff1681565b6040516101619190611568565b60405180910390f35b34801561017657600080fd5b506101a26101853660046112da565b600660209081526000928352604080842090915290825290205481565b604051908152602001610161565b3480156101bc57600080fd5b506101a27f000000000000000000000000000000000000000000000000000000000000000081565b3480156101f057600080fd5b506102046101ff3660046113f3565b6104d0565b6040516101619190611584565b34801561021d57600080fd5b506000546101a2565b34801561023257600080fd5b5061025a7f000000000000000000000000000000000000000000000000000000000000000081565b6040516101619190611576565b34801561027357600080fd5b506102046102823660046113f3565b61057c565b34801561029357600080fd5b506102a76102a236600461140c565b61058c565b005b6102bc6102b7366004611313565b610775565b6040519015158152602001610161565b3480156102d857600080fd5b506101a27f000000000000000000000000000000000000000000000000000000000000000081565b34801561030c57600080fd5b506101a27f000000000000000000000000000000000000000000000000000000000000000081565b34801561034057600080fd5b506001546101a2565b34801561035557600080fd5b506102a76103643660046113f3565b610987565b34801561037557600080fd5b506101a26103843660046112b6565b60056020526000908152604090205481565b3480156103a257600080fd5b50610204610a17565b3480156103b757600080fd5b506102a76103c63660046113a7565b610a24565b3480156103d757600080fd5b506102a76103e6366004611372565b610ad0565b3480156103f757600080fd5b506101a260025481565b34801561040d57600080fd5b50610416610b58565b6040516101619c9b9a999897969594939291906115fe565b34801561043a57600080fd5b506104627f000000000000000000000000000000000000000000000000000000000000000081565b6040516001600160a01b039091168152602001610161565b34801561048657600080fd5b506104ae7f000000000000000000000000000000000000000000000000000000000000000081565b604051610161919061155a565b3480156104c757600080fd5b506102a7610ec8565b600181815481106104e057600080fd5b9060005260206000200160009150905080546104fb90611716565b80601f016020809104026020016040519081016040528092919081815260200182805461052790611716565b80156105745780601f1061054957610100808354040283529160200191610574565b820191906000526020600020905b81548152906001019060200180831161055757829003601f168201915b505050505081565b600081815481106104e057600080fd5b336001600160a01b037f000000000000000000000000000000000000000000000000000000000000000016146105dd5760405162461bcd60e51b81526004016105d490611597565b60405180910390fd5b600082116106215760405162461bcd60e51b8152602060048201526011602482015270043616e6e6f74207769746864726177203607c1b60448201526064016105d4565b6001600160a01b038116600090815260056020526040902054808311156106a25760405162461bcd60e51b815260206004820152602f60248201527f536f7272792c2063616e2774207769746864726177206d6f7265207468616e2060448201526e746f74616c20646f6e6174696f6e7360881b60648201526084016105d4565b6106ac83826116ff565b6001600160a01b03831660008181526005602052604090209190915561075d57604051600090339085908381818185875af1925050503d806000811461070e576040519150601f19603f3d011682016040523d82523d6000602084013e610713565b606091505b50509050806107575760405162461bcd60e51b815260206004820152601060248201526f2a3930b739b332b9103330b4b632b21760811b60448201526064016105d4565b50505050565b6040516272bafd60e21b815260040160405180910390fd5b6000806004805460ff169081111561078f5761078f611767565b146107f95760405162461bcd60e51b815260206004820152603460248201527f596f752063616e6e6f7420646f6e61746520746f20612066756e647261697365604482015273722074686174206973206e6f742061637469766560601b60648201526084016105d4565b6000831161083c5760405162461bcd60e51b815260206004820152601060248201526f043616e6e6f74206465706f73697420360841b60448201526064016105d4565b60007f000000000000000000000000000000000000000000000000000000000000000011801561088b57507f000000000000000000000000000000000000000000000000000000000000000042115b156108a9576040516302d5a81560e61b815260040160405180910390fd5b6001600160a01b03821661075d578234146108c357600080fd5b6001600160a01b03841660009081526006602090815260408083208380529091529020546108f29084906116a6565b6001600160a01b0385166000908152600660209081526040808320838052825290912091909155600590527f05b8ccbb9d4d8fb16ea74ce3c29a41f1b461fbdaff4714a0d9a8eb05499746bc5461094a9084906116a6565b6000805260056020527f05b8ccbb9d4d8fb16ea74ce3c29a41f1b461fbdaff4714a0d9a8eb05499746bc5561097d610f92565b5060019392505050565b336001600160a01b037f000000000000000000000000000000000000000000000000000000000000000016146109cf5760405162461bcd60e51b81526004016105d490611597565b6001548110610a125760405162461bcd60e51b815260206004820152600f60248201526e125b5859d9481b9bdd08199bdd5b99608a1b60448201526064016105d4565b600255565b600380546104fb90611716565b336001600160a01b037f00000000000000000000000000000000000000000000000000000000000000001614610a6c5760405162461bcd60e51b81526004016105d490611597565b6001805480820182556000919091528251610aae917fb10e2d527612073b26eecdfd717e6a320cf44b4afac2b0732d9fcbe2b7fa0cf601906020850190611171565b5060018115151415610acc5760018054610ac891906116ff565b6002555b5050565b336001600160a01b037f00000000000000000000000000000000000000000000000000000000000000001614610b185760405162461bcd60e51b81526004016105d490611597565b600080546001810182559080528151610acc917f290decd9548b62a8d60345a988386fc84ba6bc95484008f6362f93160ef3e56301906020840190611171565b600080600080600080606080600060606000807f00000000000000000000000000000000000000000000000000000000000000007f00000000000000000000000000000000000000000000000000000000000000007f00000000000000000000000000000000000000000000000000000000000000007f00000000000000000000000000000000000000000000000000000000000000007f00000000000000000000000000000000000000000000000000000000000000007f0000000000000000000000000000000000000000000000000000000000000000600060016002546003600460009054906101000a900460ff1660056000806001600160a01b03166001600160a01b031681526020019081526020016000205485805480602002602001604051908101604052809291908181526020016000905b82821015610d3d578382906000526020600020018054610cb090611716565b80601f0160208091040260200160405190810160405280929190818152602001828054610cdc90611716565b8015610d295780601f10610cfe57610100808354040283529160200191610d29565b820191906000526020600020905b815481529060010190602001808311610d0c57829003601f168201915b505050505081526020019060010190610c91565b50505050955084805480602002602001604051908101604052809291908181526020016000905b82821015610e10578382906000526020600020018054610d8390611716565b80601f0160208091040260200160405190810160405280929190818152602001828054610daf90611716565b8015610dfc5780601f10610dd157610100808354040283529160200191610dfc565b820191906000526020600020905b815481529060010190602001808311610ddf57829003601f168201915b505050505081526020019060010190610d64565b505050509450828054610e2290611716565b80601f0160208091040260200160405190810160405280929190818152602001828054610e4e90611716565b8015610e9b5780601f10610e7057610100808354040283529160200191610e9b565b820191906000526020600020905b815481529060010190602001808311610e7e57829003601f168201915b505050505092509b509b509b509b509b509b509b509b509b509b509b509b50909192939495969798999a9b565b336001600160a01b037f00000000000000000000000000000000000000000000000000000000000000001614610f105760405162461bcd60e51b81526004016105d490611597565b60006004805460ff1690811115610f2957610f29611767565b14610f845760405162461bcd60e51b815260206004820152602560248201527f596f752063616e206f6e6c7920636c6f7365206163746976652066756e647261604482015264697365727360d81b60648201526084016105d4565b6004805460ff191681179055565b7f0000000000000000000000000000000000000000000000000000000000000000156110b857600061107f7f00000000000000000000000000000000000000000000000000000000000000006001600160a01b0316630ec3b0276040518163ffffffff1660e01b815260040160206040518083038186803b15801561101657600080fd5b505afa15801561102a573d6000803e3d6000fd5b505050506040513d601f19601f8201168201806040525081019061104e9190611355565b6000805260056020527f05b8ccbb9d4d8fb16ea74ce3c29a41f1b461fbdaff4714a0d9a8eb05499746bc54906110ba565b90507f000000000000000000000000000000000000000000000000000000000000000081106110b6576004805460ff191660011790555b505b565b6000806110c6836110f1565b905069d3c21bcecceda10000006110dd85836116e0565b6110e791906116be565b9150505b92915050565b600080826001600160a01b031663feaf968c6040518163ffffffff1660e01b815260040160a06040518083038186803b15801561112d57600080fd5b505afa158015611141573d6000803e3d6000fd5b505050506040513d601f19601f820116820180604052508101906111659190611431565b50919695505050505050565b82805461117d90611716565b90600052602060002090601f01602090048101928261119f57600085556111e5565b82601f106111b857805160ff19168380011785556111e5565b828001600101855582156111e5579182015b828111156111e55782518255916020019190600101906111ca565b506111f19291506111f5565b5090565b5b808211156111f157600081556001016111f6565b600082601f83011261121b57600080fd5b813567ffffffffffffffff808211156112365761123661177d565b604051601f8301601f19908116603f0116810190828211818310171561125e5761125e61177d565b8160405283815286602085880101111561127757600080fd5b836020870160208301376000602085830101528094505050505092915050565b805169ffffffffffffffffffff811681146112b157600080fd5b919050565b6000602082840312156112c857600080fd5b81356112d381611793565b9392505050565b600080604083850312156112ed57600080fd5b82356112f881611793565b9150602083013561130881611793565b809150509250929050565b60008060006060848603121561132857600080fd5b833561133381611793565b925060208401359150604084013561134a81611793565b809150509250925092565b60006020828403121561136757600080fd5b81516112d381611793565b60006020828403121561138457600080fd5b813567ffffffffffffffff81111561139b57600080fd5b6110e78482850161120a565b600080604083850312156113ba57600080fd5b823567ffffffffffffffff8111156113d157600080fd5b6113dd8582860161120a565b9250506020830135801515811461130857600080fd5b60006020828403121561140557600080fd5b5035919050565b6000806040838503121561141f57600080fd5b82359150602083013561130881611793565b600080600080600060a0868803121561144957600080fd5b61145286611297565b945060208601519350604086015192506060860151915061147560808701611297565b90509295509295909350565b600082825180855260208086019550808260051b84010181860160005b848110156114cc57601f198684030189526114ba83835161150d565b9884019892509083019060010161149e565b5090979650505050505050565b600681106114e9576114e9611767565b9052565b600581106114e9576114e9611767565b600381106114e9576114e9611767565b6000815180845260005b8181101561153357602081850181015186830182015201611517565b81811115611545576000602083870101525b50601f01601f19169290920160200192915050565b602081016110eb82846114d9565b602081016110eb82846114ed565b602081016110eb82846114fd565b6020815260006112d3602083018461150d565b60208082526041908201527f596f75206d75737420626520746865206f776e6572206f66207468652066756e60408201527f6472616973657220746f20706572666f726d2074686973206f7065726174696f6060820152603760f91b608082015260a00190565b8c81526001600160a01b038c1660208201526000610180611622604084018e6114fd565b61162f606084018d6114d9565b8a60808401528960a08401528060c084015261164d8184018a611481565b905082810360e08401526116618189611481565b90508661010084015282810361012084015261167d818761150d565b91505061168e6101408301856114ed565b826101608301529d9c50505050505050505050505050565b600082198211156116b9576116b9611751565b500190565b6000826116db57634e487b7160e01b600052601260045260246000fd5b500490565b60008160001904831182151516156116fa576116fa611751565b500290565b60008282101561171157611711611751565b500390565b600181811c9082168061172a57607f821691505b6020821081141561174b57634e487b7160e01b600052602260045260246000fd5b50919050565b634e487b7160e01b600052601160045260246000fd5b634e487b7160e01b600052602160045260246000fd5b634e487b7160e01b600052604160045260246000fd5b6001600160a01b03811681146110b657600080fdfea2646970667358221220d2d0db7fc309816f0e877503724a61ae33d837ed1df15dd9c310a329c0e0eb2a64736f6c63430008070033",
  "linkReferences": {},
  "deployedLinkReferences": {}
}