{
  "_format": "hh-sol-artifact-1",
  "contractName": "EcoFundFactory",
  "sourceName": "contracts/EcoFundFactory.sol",
  "abi": [
    {
      "inputs": [],
      "stateMutability": "nonpayable",
      "type": "constructor"
    },
    {
      "inputs": [],
      "name": "EcoFundFactory__deposit__less_than_declared",
      "type": "error"
    },
    {
      "inputs": [],
      "name": "EcoFundFactory__deposit__token_not_allowed",
      "type": "error"
    },
    {
      "inputs": [],
      "name": "EcoFundFactory__deposit__zero_deposit",
      "type": "error"
    },
    {
      "inputs": [],
      "name": "EcoFundFactory__not_implemented",
      "type": "error"
    },
    {
      "anonymous": false,
      "inputs": [
        {
          "indexed": true,
          "internalType": "uint256",
          "name": "fundraiserId",
          "type": "uint256"
        },
        {
          "indexed": true,
          "internalType": "address",
          "name": "creator",
          "type": "address"
        },
        {
          "indexed": false,
          "internalType": "string",
          "name": "title",
          "type": "string"
        },
        {
          "indexed": false,
          "internalType": "enum EcoFundModel.FundraiserType",
          "name": "fundraiserType",
          "type": "uint8"
        },
        {
          "indexed": false,
          "internalType": "enum EcoFundModel.FundraiserCategory",
          "name": "category",
          "type": "uint8"
        },
        {
          "indexed": false,
          "internalType": "uint256",
          "name": "endDate",
          "type": "uint256"
        },
        {
          "indexed": false,
          "internalType": "uint256",
          "name": "goalAmount",
          "type": "uint256"
        }
      ],
      "name": "FundraiserCreated",
      "type": "event"
    },
    {
      "anonymous": false,
      "inputs": [
        {
          "indexed": true,
          "internalType": "address",
          "name": "previousOwner",
          "type": "address"
        },
        {
          "indexed": true,
          "internalType": "address",
          "name": "newOwner",
          "type": "address"
        }
      ],
      "name": "OwnershipTransferred",
      "type": "event"
    },
    {
      "anonymous": false,
      "inputs": [
        {
          "indexed": true,
          "internalType": "address",
          "name": "creator",
          "type": "address"
        },
        {
          "indexed": false,
          "internalType": "address",
          "name": "tokenAddress",
          "type": "address"
        },
        {
          "indexed": false,
          "internalType": "uint256",
          "name": "previousBalance",
          "type": "uint256"
        },
        {
          "indexed": false,
          "internalType": "uint256",
          "name": "newBalance",
          "type": "uint256"
        }
      ],
      "name": "UserBalanceChanged",
      "type": "event"
    },
    {
      "inputs": [
        {
          "internalType": "address",
          "name": "_tokenAddress",
          "type": "address"
        }
      ],
      "name": "allowToken",
      "outputs": [],
      "stateMutability": "nonpayable",
      "type": "function"
    },
    {
      "inputs": [
        {
          "internalType": "uint256",
          "name": "_id",
          "type": "uint256"
        }
      ],
      "name": "cancelRecurringPayment",
      "outputs": [],
      "stateMutability": "nonpayable",
      "type": "function"
    },
    {
      "inputs": [
        {
          "internalType": "bytes",
          "name": "",
          "type": "bytes"
        }
      ],
      "name": "checkUpkeep",
      "outputs": [
        {
          "internalType": "bool",
          "name": "upkeepNeeded",
          "type": "bool"
        },
        {
          "internalType": "bytes",
          "name": "",
          "type": "bytes"
        }
      ],
      "stateMutability": "view",
      "type": "function"
    },
    {
      "inputs": [
        {
          "internalType": "enum EcoFundModel.FundraiserType",
          "name": "_type",
          "type": "uint8"
        },
        {
          "internalType": "enum EcoFundModel.FundraiserCategory",
          "name": "_category",
          "type": "uint8"
        },
        {
          "internalType": "string",
          "name": "_name",
          "type": "string"
        },
        {
          "internalType": "string",
          "name": "_description",
          "type": "string"
        },
        {
          "internalType": "uint256",
          "name": "_endDate",
          "type": "uint256"
        },
        {
          "internalType": "uint256",
          "name": "_goalAmount",
          "type": "uint256"
        }
      ],
      "name": "createFundraiser",
      "outputs": [
        {
          "internalType": "uint256",
          "name": "fundraiserId",
          "type": "uint256"
        }
      ],
      "stateMutability": "nonpayable",
      "type": "function"
    },
    {
      "inputs": [
        {
          "internalType": "address",
          "name": "_targetFundraiser",
          "type": "address"
        },
        {
          "internalType": "address",
          "name": "_tokenAddress",
          "type": "address"
        },
        {
          "internalType": "uint256",
          "name": "_amount",
          "type": "uint256"
        },
        {
          "internalType": "uint32",
          "name": "_intervalHours",
          "type": "uint32"
        }
      ],
      "name": "createRecurringPayment",
      "outputs": [
        {
          "internalType": "uint256",
          "name": "recurringPaymentId",
          "type": "uint256"
        }
      ],
      "stateMutability": "nonpayable",
      "type": "function"
    },
    {
      "inputs": [
        {
          "internalType": "uint256",
          "name": "_amount",
          "type": "uint256"
        },
        {
          "internalType": "address",
          "name": "_tokenAddress",
          "type": "address"
        }
      ],
      "name": "depositFunds",
      "outputs": [],
      "stateMutability": "payable",
      "type": "function"
    },
    {
      "inputs": [
        {
          "internalType": "address",
          "name": "_fundraiserAddress",
          "type": "address"
        },
        {
          "internalType": "uint256",
          "name": "_amount",
          "type": "uint256"
        },
        {
          "internalType": "address",
          "name": "_tokenAddress",
          "type": "address"
        }
      ],
      "name": "donateByAddress",
      "outputs": [],
      "stateMutability": "nonpayable",
      "type": "function"
    },
    {
      "inputs": [
        {
          "internalType": "uint256",
          "name": "_fundraiserId",
          "type": "uint256"
        },
        {
          "internalType": "uint256",
          "name": "_amount",
          "type": "uint256"
        },
        {
          "internalType": "address",
          "name": "_tokenAddress",
          "type": "address"
        }
      ],
      "name": "donateById",
      "outputs": [],
      "stateMutability": "nonpayable",
      "type": "function"
    },
    {
      "inputs": [
        {
          "internalType": "address",
          "name": "_token",
          "type": "address"
        }
      ],
      "name": "getMyBalance",
      "outputs": [
        {
          "internalType": "uint256",
          "name": "balance",
          "type": "uint256"
        }
      ],
      "stateMutability": "view",
      "type": "function"
    },
    {
      "inputs": [],
      "name": "getMyRecurringPayments",
      "outputs": [
        {
          "components": [
            {
              "internalType": "uint256",
              "name": "id",
              "type": "uint256"
            },
            {
              "internalType": "address",
              "name": "owner",
              "type": "address"
            },
            {
              "internalType": "address",
              "name": "target",
              "type": "address"
            },
            {
              "internalType": "address",
              "name": "tokenAddress",
              "type": "address"
            },
            {
              "internalType": "uint256",
              "name": "amount",
              "type": "uint256"
            },
            {
              "internalType": "uint32",
              "name": "intervalHours",
              "type": "uint32"
            },
            {
              "internalType": "uint256",
              "name": "lastExecution",
              "type": "uint256"
            },
            {
              "internalType": "enum EcoFundModel.RecurringPaymentStatus",
              "name": "status",
              "type": "uint8"
            }
          ],
          "internalType": "struct EcoFundModel.RecurringPaymentDisposition[]",
          "name": "recurringPayments",
          "type": "tuple[]"
        }
      ],
      "stateMutability": "view",
      "type": "function"
    },
    {
      "inputs": [
        {
          "internalType": "address",
          "name": "_tokenAddress",
          "type": "address"
        }
      ],
      "name": "isTokenAllowed",
      "outputs": [
        {
          "internalType": "bool",
          "name": "",
          "type": "bool"
        }
      ],
      "stateMutability": "view",
      "type": "function"
    },
    {
      "inputs": [
        {
          "internalType": "enum EcoFundModel.FundraiserStatus",
          "name": "_status",
          "type": "uint8"
        }
      ],
      "name": "listFundraisersByStatus",
      "outputs": [
        {
          "components": [
            {
              "internalType": "uint256",
              "name": "id",
              "type": "uint256"
            },
            {
              "internalType": "address",
              "name": "addr",
              "type": "address"
            },
            {
              "internalType": "address",
              "name": "owner",
              "type": "address"
            },
            {
              "internalType": "enum EcoFundModel.FundraiserType",
              "name": "fType",
              "type": "uint8"
            },
            {
              "internalType": "enum EcoFundModel.FundraiserCategory",
              "name": "category",
              "type": "uint8"
            },
            {
              "internalType": "uint256",
              "name": "endDate",
              "type": "uint256"
            },
            {
              "internalType": "uint256",
              "name": "goalAmount",
              "type": "uint256"
            },
            {
              "internalType": "string",
              "name": "description",
              "type": "string"
            },
            {
              "internalType": "string",
              "name": "defaultImage",
              "type": "string"
            },
            {
              "internalType": "string",
              "name": "name",
              "type": "string"
            },
            {
              "internalType": "enum EcoFundModel.FundraiserStatus",
              "name": "status",
              "type": "uint8"
            }
          ],
          "internalType": "struct EcoFundModel.FundraiserItem[]",
          "name": "fundraisersByStatus",
          "type": "tuple[]"
        }
      ],
      "stateMutability": "view",
      "type": "function"
    },
    {
      "inputs": [],
      "name": "owner",
      "outputs": [
        {
          "internalType": "address",
          "name": "",
          "type": "address"
        }
      ],
      "stateMutability": "view",
      "type": "function"
    },
    {
      "inputs": [
        {
          "internalType": "bytes",
          "name": "",
          "type": "bytes"
        }
      ],
      "name": "performUpkeep",
      "outputs": [],
      "stateMutability": "nonpayable",
      "type": "function"
    },
    {
      "inputs": [],
      "name": "renounceOwnership",
      "outputs": [],
      "stateMutability": "nonpayable",
      "type": "function"
    },
    {
      "inputs": [
        {
          "internalType": "uint256",
          "name": "",
          "type": "uint256"
        }
      ],
      "name": "s_allowedERC20Tokens",
      "outputs": [
        {
          "internalType": "address",
          "name": "",
          "type": "address"
        }
      ],
      "stateMutability": "view",
      "type": "function"
    },
    {
      "inputs": [
        {
          "internalType": "uint256",
          "name": "",
          "type": "uint256"
        }
      ],
      "name": "s_fundraisers",
      "outputs": [
        {
          "internalType": "address",
          "name": "",
          "type": "address"
        }
      ],
      "stateMutability": "view",
      "type": "function"
    },
    {
      "inputs": [
        {
          "internalType": "address",
          "name": "",
          "type": "address"
        },
        {
          "internalType": "uint256",
          "name": "",
          "type": "uint256"
        }
      ],
      "name": "s_fundraisersByOwner",
      "outputs": [
        {
          "internalType": "uint256",
          "name": "",
          "type": "uint256"
        }
      ],
      "stateMutability": "view",
      "type": "function"
    },
    {
      "inputs": [],
      "name": "s_lastTimeStamp",
      "outputs": [
        {
          "internalType": "uint256",
          "name": "",
          "type": "uint256"
        }
      ],
      "stateMutability": "view",
      "type": "function"
    },
    {
      "inputs": [],
      "name": "s_priceFeed",
      "outputs": [
        {
          "internalType": "contract AggregatorV3Interface",
          "name": "",
          "type": "address"
        }
      ],
      "stateMutability": "view",
      "type": "function"
    },
    {
      "inputs": [
        {
          "internalType": "uint256",
          "name": "",
          "type": "uint256"
        }
      ],
      "name": "s_recurringPayments",
      "outputs": [
        {
          "internalType": "uint256",
          "name": "id",
          "type": "uint256"
        },
        {
          "internalType": "address",
          "name": "owner",
          "type": "address"
        },
        {
          "internalType": "address",
          "name": "target",
          "type": "address"
        },
        {
          "internalType": "address",
          "name": "tokenAddress",
          "type": "address"
        },
        {
          "internalType": "uint256",
          "name": "amount",
          "type": "uint256"
        },
        {
          "internalType": "uint32",
          "name": "intervalHours",
          "type": "uint32"
        },
        {
          "internalType": "uint256",
          "name": "lastExecution",
          "type": "uint256"
        },
        {
          "internalType": "enum EcoFundModel.RecurringPaymentStatus",
          "name": "status",
          "type": "uint8"
        }
      ],
      "stateMutability": "view",
      "type": "function"
    },
    {
      "inputs": [
        {
          "internalType": "address",
          "name": "",
          "type": "address"
        },
        {
          "internalType": "uint256",
          "name": "",
          "type": "uint256"
        }
      ],
      "name": "s_recurringPaymentsByOwner",
      "outputs": [
        {
          "internalType": "uint256",
          "name": "",
          "type": "uint256"
        }
      ],
      "stateMutability": "view",
      "type": "function"
    },
    {
      "inputs": [
        {
          "internalType": "address",
          "name": "",
          "type": "address"
        },
        {
          "internalType": "address",
          "name": "",
          "type": "address"
        }
      ],
      "name": "s_userBalances",
      "outputs": [
        {
          "internalType": "uint256",
          "name": "",
          "type": "uint256"
        }
      ],
      "stateMutability": "view",
      "type": "function"
    },
    {
      "inputs": [
        {
          "internalType": "address",
          "name": "newOwner",
          "type": "address"
        }
      ],
      "name": "transferOwnership",
      "outputs": [],
      "stateMutability": "nonpayable",
      "type": "function"
    },
    {
      "inputs": [
        {
          "internalType": "uint256",
          "name": "_amount",
          "type": "uint256"
        },
        {
          "internalType": "address",
          "name": "_tokenAddress",
          "type": "address"
        }
      ],
      "name": "withdrawFunds",
      "outputs": [],
      "stateMutability": "nonpayable",
      "type": "function"
    }
  ],
  "bytecode": "0x608060405260006001556000600255610e10600b5534801561002057600080fd5b5061002a33610059565b600a80546001600160a01b031916738a753747a1fa494ec906ce90e9f37563a8af630e179055426003556100a9565b600080546001600160a01b038381166001600160a01b0319831681178455604051919092169283917f8be0079c531659141344cd1fd0a4f28419497f9722a3daafe3b4186f6b6457e09190a35050565b614c8580620000b96000396000f3fe608060405260043610620001845760003560e01c80636e04ff0d11620000e2578063b0a6169c1162000095578063f2fde38b116200006c578063f2fde38b1462000568578063f785de23146200058d578063f9d03e4614620005a4578063f9eaee0d14620005de57600080fd5b8063b0a6169c14620004e2578063b53472ef146200051e578063ce534c2d146200054357600080fd5b80636e04ff0d14620003e4578063715018a61462000419578063744bfe6114620004315780637e3ef7cd14620004565780638da5cb5b146200049d5780638db9459f14620004bd57600080fd5b80633d958db7116200013b5780633d958db714620003045780633d966429146200032957806340decd3a14620003505780634585e33b146200037557806357f93b71146200039a5780635a370cb414620003bf57600080fd5b80630d2952c214620001895780630ec3b02714620001c65780631a94cb33146200020157806321eb73f014620002915780632c186fcf14620002b65780633485404314620002dd575b600080fd5b3480156200019657600080fd5b50620001ae620001a8366004620027f0565b62000614565b604051620001bd919062002ab3565b60405180910390f35b348015620001d357600080fd5b50600a54620001e8906001600160a01b031681565b6040516001600160a01b039091168152602001620001bd565b3480156200020e57600080fd5b506200027b620002203660046200297f565b6008602052600090815260409020805460018201546002830154600384015460048501546005860154600687015460079097015495966001600160a01b03958616969486169590931693919263ffffffff9091169160ff1688565b604051620001bd98979695949392919062002d36565b3480156200029e57600080fd5b50620001e8620002b03660046200297f565b62001085565b348015620002c357600080fd5b50620002db620002d5366004620029db565b620010b0565b005b348015620002ea57600080fd5b50620002f560035481565b604051908152602001620001bd565b3480156200031157600080fd5b50620002f56200032336600462002668565b620010da565b3480156200033657600080fd5b50620003416200110c565b604051620001bd919062002be7565b3480156200035d57600080fd5b50620002db6200036f36600462002697565b620012f0565b3480156200038257600080fd5b50620002db6200039436600462002702565b620014d8565b348015620003a757600080fd5b50620002f5620003b936600462002850565b62001740565b348015620003cc57600080fd5b50620002f5620003de36600462002668565b62001886565b348015620003f157600080fd5b50620004096200040336600462002748565b620018a3565b604051620001bd92919062002c9a565b3480156200042657600080fd5b50620002db62001b71565b3480156200043e57600080fd5b50620002db62000450366004620029b3565b62001bac565b3480156200046357600080fd5b50620002f56200047536600462002581565b3360009081526005602090815260408083206001600160a01b03949094168352929052205490565b348015620004aa57600080fd5b506000546001600160a01b0316620001e8565b348015620004ca57600080fd5b50620002f5620004dc36600462002606565b62001da8565b348015620004ef57600080fd5b50620002f562000501366004620025c8565b600560209081526000928352604080842090915290825290205481565b3480156200052b57600080fd5b50620002db6200053d36600462002581565b62001e69565b3480156200055057600080fd5b50620002db620005623660046200297f565b62001ee8565b3480156200057557600080fd5b50620002db6200058736600462002581565b62001f73565b620002db6200059e366004620029b3565b62002012565b348015620005b157600080fd5b50620001e8620005c33660046200297f565b6006602052600090815260409020546001600160a01b031681565b348015620005eb57600080fd5b5062000603620005fd36600462002581565b62002150565b6040519015158152602001620001bd565b60606000805b60015481101562000705578360048111156200063a576200063a62002f34565b60008281526006602090815260409182902054825163072961cb60e21b815292516001600160a01b0390911692631ca5872c926004808301939192829003018186803b1580156200068a57600080fd5b505afa1580156200069f573d6000803e3d6000fd5b505050506040513d601f19601f82011682018060405250810190620006c5919062002810565b6004811115620006d957620006d962002f34565b1415620006f05781620006ec8162002f00565b9250505b80620006fc8162002f00565b9150506200061a565b5060008167ffffffffffffffff81111562000724576200072462002f60565b6040519080825280602002602001820160405280156200076157816020015b6200074d620024ba565b815260200190600190039081620007435790505b5090508162000771579392505050565b60005b828110156200107d576000818152600660205260409020546001600160a01b0316856004811115620007aa57620007aa62002f34565b816001600160a01b0316631ca5872c6040518163ffffffff1660e01b815260040160206040518083038186803b158015620007e457600080fd5b505afa158015620007f9573d6000803e3d6000fd5b505050506040513d601f19601f820116820180604052508101906200081f919062002810565b600481111562000833576200083362002f34565b14156200106757806001600160a01b031663779fa30f6040518163ffffffff1660e01b815260040160206040518083038186803b1580156200087457600080fd5b505afa15801562000889573d6000803e3d6000fd5b505050506040513d601f19601f82011682018060405250810190620008af919062002999565b838381518110620008c457620008c462002f4a565b6020908102919091018101519190915260008381526006909152604090205483516001600160a01b039091169084908490811062000906576200090662002f4a565b6020026020010151602001906001600160a01b031690816001600160a01b031681525050806001600160a01b031663dba6335f6040518163ffffffff1660e01b815260040160206040518083038186803b1580156200096457600080fd5b505afa15801562000979573d6000803e3d6000fd5b505050506040513d601f19601f820116820180604052508101906200099f9190620025a8565b838381518110620009b457620009b462002f4a565b6020026020010151604001906001600160a01b031690816001600160a01b031681525050806001600160a01b031663554abf526040518163ffffffff1660e01b815260040160206040518083038186803b15801562000a1257600080fd5b505afa15801562000a27573d6000803e3d6000fd5b505050506040513d601f19601f8201168201806040525081019062000a4d919062002830565b83838151811062000a625762000a6262002f4a565b602002602001015160600190600281111562000a825762000a8262002f34565b9081600281111562000a985762000a9862002f34565b81525050806001600160a01b031663f950e69c6040518163ffffffff1660e01b815260040160206040518083038186803b15801562000ad657600080fd5b505afa15801562000aeb573d6000803e3d6000fd5b505050506040513d601f19601f8201168201806040525081019062000b119190620027d0565b83838151811062000b265762000b2662002f4a565b602002602001015160800190600581111562000b465762000b4662002f34565b9081600581111562000b5c5762000b5c62002f34565b81525050806001600160a01b031663bba1964f6040518163ffffffff1660e01b815260040160006040518083038186803b15801562000b9a57600080fd5b505afa15801562000baf573d6000803e3d6000fd5b505050506040513d6000823e601f3d908101601f1916820160405262000bd99190810190620028ff565b83838151811062000bee5762000bee62002f4a565b602002602001015161012001819052506000816001600160a01b03166352ddf8626040518163ffffffff1660e01b815260040160206040518083038186803b15801562000c3a57600080fd5b505afa15801562000c4f573d6000803e3d6000fd5b505050506040513d601f19601f8201168201806040525081019062000c75919062002999565b111562000d2157604051636680ba7d60e01b8152600060048201526001600160a01b03821690636680ba7d9060240160006040518083038186803b15801562000cbd57600080fd5b505afa15801562000cd2573d6000803e3d6000fd5b505050506040513d6000823e601f3d908101601f1916820160405262000cfc9190810190620028ff565b83838151811062000d115762000d1162002f4a565b602002602001015160e001819052505b806001600160a01b031663369268666040518163ffffffff1660e01b815260040160206040518083038186803b15801562000d5b57600080fd5b505afa15801562000d70573d6000803e3d6000fd5b505050506040513d601f19601f8201168201806040525081019062000d96919062002999565b83838151811062000dab5762000dab62002f4a565b602002602001015160a0018181525050806001600160a01b031663853a68666040518163ffffffff1660e01b815260040160206040518083038186803b15801562000df557600080fd5b505afa15801562000e0a573d6000803e3d6000fd5b505050506040513d601f19601f8201168201806040525081019062000e30919062002999565b83838151811062000e455762000e4562002f4a565b602002602001015160c0018181525050806001600160a01b031663ca2b72206040518163ffffffff1660e01b815260040160206040518083038186803b15801562000e8f57600080fd5b505afa15801562000ea4573d6000803e3d6000fd5b505050506040513d601f19601f8201168201806040525081019062000eca919062002999565b816001600160a01b0316638742993d6040518163ffffffff1660e01b815260040160206040518083038186803b15801562000f0457600080fd5b505afa15801562000f19573d6000803e3d6000fd5b505050506040513d601f19601f8201168201806040525081019062000f3f919062002999565b11156200106757806001600160a01b03166343394df4826001600160a01b031663ca2b72206040518163ffffffff1660e01b815260040160206040518083038186803b15801562000f8f57600080fd5b505afa15801562000fa4573d6000803e3d6000fd5b505050506040513d601f19601f8201168201806040525081019062000fca919062002999565b6040518263ffffffff1660e01b815260040162000fe991815260200190565b60006040518083038186803b1580156200100257600080fd5b505afa15801562001017573d6000803e3d6000fd5b505050506040513d6000823e601f3d908101601f19168201604052620010419190810190620028ff565b83838151811062001056576200105662002f4a565b602002602001015161010001819052505b5080620010748162002f00565b91505062000774565b509392505050565b600481815481106200109657600080fd5b6000918252602090912001546001600160a01b0316905081565b600083815260066020526040902054620010d5906001600160a01b03168383620012f0565b505050565b60096020528160005260406000208181548110620010f757600080fd5b90600052602060002001600091509150505481565b3360009081526009602052604090205460609067ffffffffffffffff8111156200113a576200113a62002f60565b604051908082528060200260200182016040528015620011b357816020015b6200119f6040805161010081018252600080825260208201819052918101829052606081018290526080810182905260a0810182905260c081018290529060e082015290565b815260200190600190039081620011595790505b50905060005b33600090815260096020526040902054811015620012ec573360009081526009602052604081208054600892919084908110620011fa57620011fa62002f4a565b600091825260208083209091015483528281019390935260409182019020815161010081018352815481526001808301546001600160a01b039081169583019590955260028301548516938201939093526003820154909316606084015260048101546080840152600581015463ffffffff1660a0840152600681015460c08401526007810154909160e084019160ff16908111156200129e576200129e62002f34565b6001811115620012b257620012b262002f34565b81525050828281518110620012cb57620012cb62002f4a565b60200260200101819052508080620012e39062002f00565b915050620011b9565b5090565b60008211620013385760405162461bcd60e51b815260206004820152600f60248201526e043616e6e6f7420646f6e617465203608c1b60448201526064015b60405180910390fd5b3360009081526005602090815260408083206001600160a01b038516845290915290205480831115620013a35760405162461bcd60e51b81526020600482015260126024820152714e6f7420656e6f7567682062616c616e636560701b60448201526064016200132f565b620013af838262002eb7565b3360009081526005602090815260408083206001600160a01b038716808552925290912091909155620014b9576040516374e781b360e01b8152336004820152602481018490526001600160a01b038381166044830152600091908616906374e781b39086906064016020604051808303818588803b1580156200143257600080fd5b505af115801562001447573d6000803e3d6000fd5b50505050506040513d601f19601f820116820180604052508101906200146e9190620026de565b905080620014b25760405162461bcd60e51b815260206004820152601060248201526f2a3930b739b332b9103330b4b632b21760811b60448201526064016200132f565b50620014d2565b60405163eed8d33360e01b815260040160405180910390fd5b50505050565b60005b600254811015620010d55760008181526008602052604081206007015460ff1660018111156200150f576200150f62002f34565b146200151b576200172b565b6001600082815260086020908152604091829020600201548251632aa55fa960e11b815292516001600160a01b039091169263554abf52926004808301939192829003018186803b1580156200157057600080fd5b505afa15801562001585573d6000803e3d6000fd5b505050506040513d601f19601f82011682018060405250810190620015ab919062002830565b6002811115620015bf57620015bf62002f34565b14620015cb576200172b565b600081815260086020908152604080832060020154815163072961cb60e21b815291516001600160a01b0390911692631ca5872c9260048082019391829003018186803b1580156200161c57600080fd5b505afa15801562001631573d6000803e3d6000fd5b505050506040513d601f19601f8201168201806040525081019062001657919062002810565b60048111156200166b576200166b62002f34565b1462001677576200172b565b6000818152600860209081526040808320600481015460018201546001600160a01b039081168652600585528386206003909301541685529252909120541015620016c2576200172b565b600081815260086020526040902060050154620016e79063ffffffff16603c62002e88565b620016f490603c62002e88565b600082815260086020526040902060060154620017189163ffffffff169062002e6d565b4211156200172b576200172b81620021c2565b80620017378162002f00565b915050620014db565b60018054906200175290829062002e6d565b600181905550600081338b8b8b8b8b8b8b8b604051620017729062002527565b620017879a9998979695949392919062002d93565b604051809103906000f080158015620017a4573d6000803e3d6000fd5b509050806006600084815260200190815260200160002060006101000a8154816001600160a01b0302191690836001600160a01b0316021790555060076000336001600160a01b03166001600160a01b03168152602001908152602001600020829080600181540180825580915050600190039060005260206000200160009091909190915055336001600160a01b0316827f2a3720f62d1e85b04f6fdde0ad0f608f61ce672e8bd70c9f4f887b6a9febcf778a8a8e8e8a8a604051620018719695949392919062002cb7565b60405180910390a35098975050505050505050565b60076020528160005260406000208181548110620010f757600080fd5b600060606000600b5460035442620018bc919062002eb7565b119050600080600154118015620018d557506000600254115b90506000805b60025481101562001b3f5760008181526008602052604081206007015460ff1660018111156200190f576200190f62002f34565b146200191b5762001b2a565b6001600082815260086020908152604091829020600201548251632aa55fa960e11b815292516001600160a01b039091169263554abf52926004808301939192829003018186803b1580156200197057600080fd5b505afa15801562001985573d6000803e3d6000fd5b505050506040513d601f19601f82011682018060405250810190620019ab919062002830565b6002811115620019bf57620019bf62002f34565b14620019cb5762001b2a565b600081815260086020908152604080832060020154815163072961cb60e21b815291516001600160a01b0390911692631ca5872c9260048082019391829003018186803b15801562001a1c57600080fd5b505afa15801562001a31573d6000803e3d6000fd5b505050506040513d601f19601f8201168201806040525081019062001a57919062002810565b600481111562001a6b5762001a6b62002f34565b1462001a775762001b2a565b6000818152600860209081526040808320600481015460018201546001600160a01b03908116865260058552838620600390930154168552925290912054101562001ac25762001b2a565b60008181526008602052604090206005015462001ae79063ffffffff16603c62002e88565b62001af490603c62002e88565b60008281526008602052604090206006015462001b189163ffffffff169062002e6d565b42111562001b2a576001915062001b3f565b8062001b368162002f00565b915050620018db565b5082801562001b4b5750815b801562001b555750805b6040805160208101909152600081529097909650945050505050565b6000546001600160a01b0316331462001b9e5760405162461bcd60e51b81526004016200132f9062002d01565b62001baa60006200246a565b565b6000821162001bf25760405162461bcd60e51b8152602060048201526011602482015270043616e6e6f74207769746864726177203607c1b60448201526064016200132f565b3360009081526005602090815260408083206001600160a01b03851684529091529020548083111562001c5d5760405162461bcd60e51b81526020600482015260126024820152714e6f7420656e6f7567682062616c616e636560701b60448201526064016200132f565b62001c69838262002eb7565b3360009081526005602090815260408083206001600160a01b038716808552925290912091909155620014b957604051600090339085908381818185875af1925050503d806000811462001cda576040519150601f19603f3d011682016040523d82523d6000602084013e62001cdf565b606091505b505090508062001d255760405162461bcd60e51b815260206004820152601060248201526f2a3930b739b332b9103330b4b632b21760811b60448201526064016200132f565b503360008181526005602090815260408083206001600160a01b03871684529091529020547fc74b13afc7ea4cc43b81bbda4c6db15d24751ccde1c9eae797e941d0510830cd90849062001d7a878662002eb7565b604080516001600160a01b0390941684526020840192909252908201526060015b60405180910390a2505050565b60025462001db881600162002e6d565b6002908155600082815260086020908152604080832085815560018082018054336001600160a01b03199182168117909255968301805488166001600160a01b038e811691909117909155600384018054909816908c16179096556004820189905560058201805463ffffffff191663ffffffff8a161790556007909101805460ff1916905593835260098252822080549384018155825290200181905562001e6181620021c2565b949350505050565b6000546001600160a01b0316331462001e965760405162461bcd60e51b81526004016200132f9062002d01565b600480546001810182556000919091527f8a35acfbc15ff81a39ae7d344fd709f28e8600b4aa8c65c6b64bfe7fe36bd19b0180546001600160a01b0319166001600160a01b0392909216919091179055565b6000818152600860205260409020600101546001600160a01b0316331462001f2357604051632c5cb2c960e01b815260040160405180910390fd5b60008181526008602052604081206007015460ff16600181111562001f4c5762001f4c62002f34565b141562001f70576000818152600860205260409020600701805460ff191660011790555b50565b6000546001600160a01b0316331462001fa05760405162461bcd60e51b81526004016200132f9062002d01565b6001600160a01b038116620020075760405162461bcd60e51b815260206004820152602660248201527f4f776e61626c653a206e6577206f776e657220697320746865207a65726f206160448201526564647265737360d01b60648201526084016200132f565b62001f70816200246a565b81620020315760405163cb93789960e01b815260040160405180910390fd5b3360009081526005602090815260408083206001600160a01b03851680855292529091205490620020c757823410156200207e576040516309c5cf5f60e21b815260040160405180910390fd5b336000908152600560209081526040808320838052909152902054620020a690849062002e6d565b336000908152600560209081526040808320838052909152902055620020f0565b620020d28262002150565b620014b957604051632c5cb2c960e01b815260040160405180910390fd5b3360008181526005602090815260408083206001600160a01b038716808552908352928190205481519384529183018590528201527fc74b13afc7ea4cc43b81bbda4c6db15d24751ccde1c9eae797e941d0510830cd9060600162001d9b565b6000805b600454811015620021b957826001600160a01b0316600482815481106200217f576200217f62002f4a565b6000918252602090912001546001600160a01b03161415620021a45750600192915050565b80620021b08162002f00565b91505062002154565b50600092915050565b600081815260086020818152604080842060018101546001600160a01b03908116865260058452828620600383015490911686528352908420549385905291905260040154811062002452576000828152600860205260409020600401546200222c908262002eb7565b600083815260086020818152604080842060018101546001600160a01b0390811686526005845282862060038301548216875284529185209590955586845291905260029092015490911690816001600160a01b0316631ca5872c6040518163ffffffff1660e01b815260040160206040518083038186803b158015620022b257600080fd5b505afa158015620022c7573d6000803e3d6000fd5b505050506040513d601f19601f82011682018060405250810190620022ed919062002810565b600481111562002301576200230162002f34565b1480156200239757506001816001600160a01b031663554abf526040518163ffffffff1660e01b815260040160206040518083038186803b1580156200234657600080fd5b505afa1580156200235b573d6000803e3d6000fd5b505050506040513d601f19601f8201168201806040525081019062002381919062002830565b600281111562002395576200239562002f34565b145b15620024505760008381526008602052604090819020600480820154600183015460039093015493516374e781b360e01b81526001600160a01b0393841692810192909252602482018190529282166044820152908316916374e781b3916064016020604051808303818588803b1580156200241257600080fd5b505af115801562002427573d6000803e3d6000fd5b50505050506040513d601f19601f820116820180604052508101906200244e9190620026de565b505b505b50600090815260086020526040902042600690910155565b600080546001600160a01b038381166001600160a01b0319831681178455604051919092169283917f8be0079c531659141344cd1fd0a4f28419497f9722a3daafe3b4186f6b6457e09190a35050565b604080516101608101825260008082526020820181905291810182905290606082019081526020016000815260200160008152602001600081526020016060815260200160608152602001606081526020016000600481111562002522576200252262002f34565b905290565b611c998062002fb783390190565b60008083601f8401126200254857600080fd5b50813567ffffffffffffffff8111156200256157600080fd5b6020830191508360208285010111156200257a57600080fd5b9250929050565b6000602082840312156200259457600080fd5b8135620025a18162002f76565b9392505050565b600060208284031215620025bb57600080fd5b8151620025a18162002f76565b60008060408385031215620025dc57600080fd5b8235620025e98162002f76565b91506020830135620025fb8162002f76565b809150509250929050565b600080600080608085870312156200261d57600080fd5b84356200262a8162002f76565b935060208501356200263c8162002f76565b925060408501359150606085013563ffffffff811681146200265d57600080fd5b939692955090935050565b600080604083850312156200267c57600080fd5b8235620026898162002f76565b946020939093013593505050565b600080600060608486031215620026ad57600080fd5b8335620026ba8162002f76565b9250602084013591506040840135620026d38162002f76565b809150509250925092565b600060208284031215620026f157600080fd5b81518015158114620025a157600080fd5b600080602083850312156200271657600080fd5b823567ffffffffffffffff8111156200272e57600080fd5b6200273c8582860162002535565b90969095509350505050565b6000602082840312156200275b57600080fd5b813567ffffffffffffffff8111156200277357600080fd5b8201601f810184136200278557600080fd5b80356200279c620027968262002e42565b62002e0e565b818152856020838501011115620027b257600080fd5b81602084016020830137600091810160200191909152949350505050565b600060208284031215620027e357600080fd5b8151620025a18162002f8c565b6000602082840312156200280357600080fd5b8135620025a18162002f9a565b6000602082840312156200282357600080fd5b8151620025a18162002f9a565b6000602082840312156200284357600080fd5b8151620025a18162002fa8565b60008060008060008060008060c0898b0312156200286d57600080fd5b88356200287a8162002fa8565b975060208901356200288c8162002f8c565b9650604089013567ffffffffffffffff80821115620028aa57600080fd5b620028b88c838d0162002535565b909850965060608b0135915080821115620028d257600080fd5b50620028e18b828c0162002535565b999c989b5096999598969760808701359660a0013595509350505050565b6000602082840312156200291257600080fd5b815167ffffffffffffffff8111156200292a57600080fd5b8201601f810184136200293c57600080fd5b80516200294d620027968262002e42565b8181528560208385010111156200296357600080fd5b6200297682602083016020860162002ed1565b95945050505050565b6000602082840312156200299257600080fd5b5035919050565b600060208284031215620029ac57600080fd5b5051919050565b60008060408385031215620029c757600080fd5b823591506020830135620025fb8162002f76565b600080600060608486031215620029f157600080fd5b83359250602084013591506040840135620026d38162002f76565b6000815180845262002a2681602086016020860162002ed1565b601f01601f19169290920160200192915050565b6006811062002a4d5762002a4d62002f34565b9052565b6005811062002a4d5762002a4d62002f34565b6003811062002a4d5762002a4d62002f34565b6002811062002a4d5762002a4d62002f34565b81835281816020850137506000828201602090810191909152601f909101601f19169091010190565b60006020808301818452808551808352604092508286019150828160051b87010184880160005b8381101562002bd957603f19898403018552815180518452878101516001600160a01b0390811689860152878201511687850152606080820151610160919062002b278288018262002a64565b505060808083015162002b3d8288018262002a3a565b505060a0828101519086015260c0808301519086015260e08083015181870183905262002b6d8388018262002a0c565b92505050610100808301518683038288015262002b8b838262002a0c565b92505050610120808301518683038288015262002ba9838262002a0c565b9250505061014080830151925062002bc48187018462002a51565b50958801959350509086019060010162002ada565b509098975050505050505050565b602080825282518282018190526000919060409081850190868401855b8281101562002c8d57815180518552868101516001600160a01b039081168887015286820151811687870152606080830151909116908601526080808201519086015260a08082015163ffffffff169086015260c0808201519086015260e0908101519062002c768187018362002a77565b505061010093909301929085019060010162002c04565b5091979650505050505050565b821515815260406020820152600062001e61604083018462002a0c565b60a08152600062002ccd60a08301888a62002a8a565b905062002cde602083018762002a64565b62002ced604083018662002a3a565b606082019390935260800152949350505050565b6020808252818101527f4f776e61626c653a2063616c6c6572206973206e6f7420746865206f776e6572604082015260600190565b8881526001600160a01b0388811660208301528781166040830152861660608201526080810185905263ffffffff841660a082015260c08101839052610100810162002d8660e083018462002a77565b9998505050505050505050565b8a81526001600160a01b038a166020820152600061010062002db9604084018c62002a64565b62002dc8606084018b62002a3a565b80608084015262002ddd818401898b62002a8a565b905082810360a084015262002df481878962002a8a565b60c0840195909552505060e0015298975050505050505050565b604051601f8201601f1916810167ffffffffffffffff8111828210171562002e3a5762002e3a62002f60565b604052919050565b600067ffffffffffffffff82111562002e5f5762002e5f62002f60565b50601f01601f191660200190565b6000821982111562002e835762002e8362002f1e565b500190565b600063ffffffff8083168185168183048111821515161562002eae5762002eae62002f1e565b02949350505050565b60008282101562002ecc5762002ecc62002f1e565b500390565b60005b8381101562002eee57818101518382015260200162002ed4565b83811115620014d25750506000910152565b600060001982141562002f175762002f1762002f1e565b5060010190565b634e487b7160e01b600052601160045260246000fd5b634e487b7160e01b600052602160045260246000fd5b634e487b7160e01b600052603260045260246000fd5b634e487b7160e01b600052604160045260246000fd5b6001600160a01b038116811462001f7057600080fd5b6006811062001f7057600080fd5b6005811062001f7057600080fd5b6003811062001f7057600080fdfe6101606040523480156200001257600080fd5b5060405162001c9938038062001c998339810160408190526200003591620002b5565b60808890526001600160601b0319606088901b1660a052856002811115620000615762000061620003bf565b60c0816002811115620000785762000078620003bf565b60f81b905250846005811115620000935762000093620003bf565b60e0816005811115620000aa57620000aa620003bf565b60f81b9052508351620000c590600390602087019062000133565b5060008054600181018255908052835162000108917f290decd9548b62a8d60345a988386fc84ba6bc95484008f6362f93160ef3e5630190602086019062000133565b503360601b61014052610100919091526101205250506004805460ff1916905550620003eb92505050565b828054620001419062000382565b90600052602060002090601f016020900481019282620001655760008555620001b0565b82601f106200018057805160ff1916838001178555620001b0565b82800160010185558215620001b0579182015b82811115620001b057825182559160200191906001019062000193565b50620001be929150620001c2565b5090565b5b80821115620001be5760008155600101620001c3565b805160068110620001e957600080fd5b919050565b805160038110620001e957600080fd5b600082601f8301126200021057600080fd5b81516001600160401b03808211156200022d576200022d620003d5565b604051601f8301601f19908116603f01168101908282118183101715620002585762000258620003d5565b816040528381526020925086838588010111156200027557600080fd5b600091505b838210156200029957858201830151818301840152908201906200027a565b83821115620002ab5760008385830101525b9695505050505050565b600080600080600080600080610100898b031215620002d357600080fd5b885160208a01519098506001600160a01b0381168114620002f357600080fd5b96506200030360408a01620001ee565b95506200031360608a01620001d9565b60808a01519095506001600160401b03808211156200033157600080fd5b6200033f8c838d01620001fe565b955060a08b01519150808211156200035657600080fd5b50620003658b828c01620001fe565b60c08b015160e0909b0151999c989b509699959894979350505050565b600181811c908216806200039757607f821691505b60208210811415620003b957634e487b7160e01b600052602260045260246000fd5b50919050565b634e487b7160e01b600052602160045260246000fd5b634e487b7160e01b600052604160045260246000fd5b60805160a05160601c60c05160f81c60e05160f81c61010051610120516101405160601c6117de620004bb6000396000610fbf01526000818161031201528181610c1201528181610f9401526110830152600081816101c201528181610840015281816108690152610bf101526000818161048c0152610bd00152600081816102380152610baf015260008181610440015281816105970152818161099201528181610a2f01528181610adb01528181610b8e0152610ed30152600081816102de0152610b6d01526117de6000f3fe6080604052600436106101355760003560e01c80638742993d116100ab578063c699db511161006f578063c699db51146103cb578063ca2b7220146103eb578063ccc5d7d414610401578063dba6335f1461042e578063f950e69c1461047a578063ff2e100c146104bb57600080fd5b80638742993d146103345780638e82814314610349578063ab32eb6914610369578063bba1964f14610396578063bf9f4aab146103ab57600080fd5b8063554abf52116100fd578063554abf52146102265780636680ba7d14610267578063744bfe611461028757806374e781b3146102a9578063779fa30f146102cc578063853a68661461030057600080fd5b80631ca5872c1461013a5780632a5785421461016a57806336926866146101b057806343394df4146101e457806352ddf86214610211575b600080fd5b34801561014657600080fd5b506004546101549060ff1681565b6040516101619190611568565b60405180910390f35b34801561017657600080fd5b506101a26101853660046112da565b600660209081526000928352604080842090915290825290205481565b604051908152602001610161565b3480156101bc57600080fd5b506101a27f000000000000000000000000000000000000000000000000000000000000000081565b3480156101f057600080fd5b506102046101ff3660046113f3565b6104d0565b6040516101619190611584565b34801561021d57600080fd5b506000546101a2565b34801561023257600080fd5b5061025a7f000000000000000000000000000000000000000000000000000000000000000081565b6040516101619190611576565b34801561027357600080fd5b506102046102823660046113f3565b61057c565b34801561029357600080fd5b506102a76102a236600461140c565b61058c565b005b6102bc6102b7366004611313565b610775565b6040519015158152602001610161565b3480156102d857600080fd5b506101a27f000000000000000000000000000000000000000000000000000000000000000081565b34801561030c57600080fd5b506101a27f000000000000000000000000000000000000000000000000000000000000000081565b34801561034057600080fd5b506001546101a2565b34801561035557600080fd5b506102a76103643660046113f3565b610987565b34801561037557600080fd5b506101a26103843660046112b6565b60056020526000908152604090205481565b3480156103a257600080fd5b50610204610a17565b3480156103b757600080fd5b506102a76103c63660046113a7565b610a24565b3480156103d757600080fd5b506102a76103e6366004611372565b610ad0565b3480156103f757600080fd5b506101a260025481565b34801561040d57600080fd5b50610416610b58565b6040516101619c9b9a999897969594939291906115fe565b34801561043a57600080fd5b506104627f000000000000000000000000000000000000000000000000000000000000000081565b6040516001600160a01b039091168152602001610161565b34801561048657600080fd5b506104ae7f000000000000000000000000000000000000000000000000000000000000000081565b604051610161919061155a565b3480156104c757600080fd5b506102a7610ec8565b600181815481106104e057600080fd5b9060005260206000200160009150905080546104fb90611716565b80601f016020809104026020016040519081016040528092919081815260200182805461052790611716565b80156105745780601f1061054957610100808354040283529160200191610574565b820191906000526020600020905b81548152906001019060200180831161055757829003601f168201915b505050505081565b600081815481106104e057600080fd5b336001600160a01b037f000000000000000000000000000000000000000000000000000000000000000016146105dd5760405162461bcd60e51b81526004016105d490611597565b60405180910390fd5b600082116106215760405162461bcd60e51b8152602060048201526011602482015270043616e6e6f74207769746864726177203607c1b60448201526064016105d4565b6001600160a01b038116600090815260056020526040902054808311156106a25760405162461bcd60e51b815260206004820152602f60248201527f536f7272792c2063616e2774207769746864726177206d6f7265207468616e2060448201526e746f74616c20646f6e6174696f6e7360881b60648201526084016105d4565b6106ac83826116ff565b6001600160a01b03831660008181526005602052604090209190915561075d57604051600090339085908381818185875af1925050503d806000811461070e576040519150601f19603f3d011682016040523d82523d6000602084013e610713565b606091505b50509050806107575760405162461bcd60e51b815260206004820152601060248201526f2a3930b739b332b9103330b4b632b21760811b60448201526064016105d4565b50505050565b6040516272bafd60e21b815260040160405180910390fd5b6000806004805460ff169081111561078f5761078f611767565b146107f95760405162461bcd60e51b815260206004820152603460248201527f596f752063616e6e6f7420646f6e61746520746f20612066756e647261697365604482015273722074686174206973206e6f742061637469766560601b60648201526084016105d4565b6000831161083c5760405162461bcd60e51b815260206004820152601060248201526f043616e6e6f74206465706f73697420360841b60448201526064016105d4565b60007f000000000000000000000000000000000000000000000000000000000000000011801561088b57507f000000000000000000000000000000000000000000000000000000000000000042115b156108a9576040516302d5a81560e61b815260040160405180910390fd5b6001600160a01b03821661075d578234146108c357600080fd5b6001600160a01b03841660009081526006602090815260408083208380529091529020546108f29084906116a6565b6001600160a01b0385166000908152600660209081526040808320838052825290912091909155600590527f05b8ccbb9d4d8fb16ea74ce3c29a41f1b461fbdaff4714a0d9a8eb05499746bc5461094a9084906116a6565b6000805260056020527f05b8ccbb9d4d8fb16ea74ce3c29a41f1b461fbdaff4714a0d9a8eb05499746bc5561097d610f92565b5060019392505050565b336001600160a01b037f000000000000000000000000000000000000000000000000000000000000000016146109cf5760405162461bcd60e51b81526004016105d490611597565b6001548110610a125760405162461bcd60e51b815260206004820152600f60248201526e125b5859d9481b9bdd08199bdd5b99608a1b60448201526064016105d4565b600255565b600380546104fb90611716565b336001600160a01b037f00000000000000000000000000000000000000000000000000000000000000001614610a6c5760405162461bcd60e51b81526004016105d490611597565b6001805480820182556000919091528251610aae917fb10e2d527612073b26eecdfd717e6a320cf44b4afac2b0732d9fcbe2b7fa0cf601906020850190611171565b5060018115151415610acc5760018054610ac891906116ff565b6002555b5050565b336001600160a01b037f00000000000000000000000000000000000000000000000000000000000000001614610b185760405162461bcd60e51b81526004016105d490611597565b600080546001810182559080528151610acc917f290decd9548b62a8d60345a988386fc84ba6bc95484008f6362f93160ef3e56301906020840190611171565b600080600080600080606080600060606000807f00000000000000000000000000000000000000000000000000000000000000007f00000000000000000000000000000000000000000000000000000000000000007f00000000000000000000000000000000000000000000000000000000000000007f00000000000000000000000000000000000000000000000000000000000000007f00000000000000000000000000000000000000000000000000000000000000007f0000000000000000000000000000000000000000000000000000000000000000600060016002546003600460009054906101000a900460ff1660056000806001600160a01b03166001600160a01b031681526020019081526020016000205485805480602002602001604051908101604052809291908181526020016000905b82821015610d3d578382906000526020600020018054610cb090611716565b80601f0160208091040260200160405190810160405280929190818152602001828054610cdc90611716565b8015610d295780601f10610cfe57610100808354040283529160200191610d29565b820191906000526020600020905b815481529060010190602001808311610d0c57829003601f168201915b505050505081526020019060010190610c91565b50505050955084805480602002602001604051908101604052809291908181526020016000905b82821015610e10578382906000526020600020018054610d8390611716565b80601f0160208091040260200160405190810160405280929190818152602001828054610daf90611716565b8015610dfc5780601f10610dd157610100808354040283529160200191610dfc565b820191906000526020600020905b815481529060010190602001808311610ddf57829003601f168201915b505050505081526020019060010190610d64565b505050509450828054610e2290611716565b80601f0160208091040260200160405190810160405280929190818152602001828054610e4e90611716565b8015610e9b5780601f10610e7057610100808354040283529160200191610e9b565b820191906000526020600020905b815481529060010190602001808311610e7e57829003601f168201915b505050505092509b509b509b509b509b509b509b509b509b509b509b509b50909192939495969798999a9b565b336001600160a01b037f00000000000000000000000000000000000000000000000000000000000000001614610f105760405162461bcd60e51b81526004016105d490611597565b60006004805460ff1690811115610f2957610f29611767565b14610f845760405162461bcd60e51b815260206004820152602560248201527f596f752063616e206f6e6c7920636c6f7365206163746976652066756e647261604482015264697365727360d81b60648201526084016105d4565b6004805460ff191681179055565b7f0000000000000000000000000000000000000000000000000000000000000000156110b857600061107f7f00000000000000000000000000000000000000000000000000000000000000006001600160a01b0316630ec3b0276040518163ffffffff1660e01b815260040160206040518083038186803b15801561101657600080fd5b505afa15801561102a573d6000803e3d6000fd5b505050506040513d601f19601f8201168201806040525081019061104e9190611355565b6000805260056020527f05b8ccbb9d4d8fb16ea74ce3c29a41f1b461fbdaff4714a0d9a8eb05499746bc54906110ba565b90507f000000000000000000000000000000000000000000000000000000000000000081106110b6576004805460ff191660011790555b505b565b6000806110c6836110f1565b905069d3c21bcecceda10000006110dd85836116e0565b6110e791906116be565b9150505b92915050565b600080826001600160a01b031663feaf968c6040518163ffffffff1660e01b815260040160a06040518083038186803b15801561112d57600080fd5b505afa158015611141573d6000803e3d6000fd5b505050506040513d601f19601f820116820180604052508101906111659190611431565b50919695505050505050565b82805461117d90611716565b90600052602060002090601f01602090048101928261119f57600085556111e5565b82601f106111b857805160ff19168380011785556111e5565b828001600101855582156111e5579182015b828111156111e55782518255916020019190600101906111ca565b506111f19291506111f5565b5090565b5b808211156111f157600081556001016111f6565b600082601f83011261121b57600080fd5b813567ffffffffffffffff808211156112365761123661177d565b604051601f8301601f19908116603f0116810190828211818310171561125e5761125e61177d565b8160405283815286602085880101111561127757600080fd5b836020870160208301376000602085830101528094505050505092915050565b805169ffffffffffffffffffff811681146112b157600080fd5b919050565b6000602082840312156112c857600080fd5b81356112d381611793565b9392505050565b600080604083850312156112ed57600080fd5b82356112f881611793565b9150602083013561130881611793565b809150509250929050565b60008060006060848603121561132857600080fd5b833561133381611793565b925060208401359150604084013561134a81611793565b809150509250925092565b60006020828403121561136757600080fd5b81516112d381611793565b60006020828403121561138457600080fd5b813567ffffffffffffffff81111561139b57600080fd5b6110e78482850161120a565b600080604083850312156113ba57600080fd5b823567ffffffffffffffff8111156113d157600080fd5b6113dd8582860161120a565b9250506020830135801515811461130857600080fd5b60006020828403121561140557600080fd5b5035919050565b6000806040838503121561141f57600080fd5b82359150602083013561130881611793565b600080600080600060a0868803121561144957600080fd5b61145286611297565b945060208601519350604086015192506060860151915061147560808701611297565b90509295509295909350565b600082825180855260208086019550808260051b84010181860160005b848110156114cc57601f198684030189526114ba83835161150d565b9884019892509083019060010161149e565b5090979650505050505050565b600681106114e9576114e9611767565b9052565b600581106114e9576114e9611767565b600381106114e9576114e9611767565b6000815180845260005b8181101561153357602081850181015186830182015201611517565b81811115611545576000602083870101525b50601f01601f19169290920160200192915050565b602081016110eb82846114d9565b602081016110eb82846114ed565b602081016110eb82846114fd565b6020815260006112d3602083018461150d565b60208082526041908201527f596f75206d75737420626520746865206f776e6572206f66207468652066756e60408201527f6472616973657220746f20706572666f726d2074686973206f7065726174696f6060820152603760f91b608082015260a00190565b8c81526001600160a01b038c1660208201526000610180611622604084018e6114fd565b61162f606084018d6114d9565b8a60808401528960a08401528060c084015261164d8184018a611481565b905082810360e08401526116618189611481565b90508661010084015282810361012084015261167d818761150d565b91505061168e6101408301856114ed565b826101608301529d9c50505050505050505050505050565b600082198211156116b9576116b9611751565b500190565b6000826116db57634e487b7160e01b600052601260045260246000fd5b500490565b60008160001904831182151516156116fa576116fa611751565b500290565b60008282101561171157611711611751565b500390565b600181811c9082168061172a57607f821691505b6020821081141561174b57634e487b7160e01b600052602260045260246000fd5b50919050565b634e487b7160e01b600052601160045260246000fd5b634e487b7160e01b600052602160045260246000fd5b634e487b7160e01b600052604160045260246000fd5b6001600160a01b03811681146110b657600080fdfea2646970667358221220d2d0db7fc309816f0e877503724a61ae33d837ed1df15dd9c310a329c0e0eb2a64736f6c63430008070033a26469706673582212200063f1f42b8361559e2331ddd0384daa5601cad92e9e147244be99885b3f74b164736f6c63430008070033",
  "linkReferences": {},
  "deployedLinkReferences": {}
}